{
  "_format": "hh-sol-artifact-1",
  "contractName": "Election",
  "sourceName": "contracts/Election.sol",
  "abi": [
    {
      "inputs": [],
      "stateMutability": "nonpayable",
      "type": "constructor"
    },
    {
      "inputs": [
        {
          "internalType": "uint256",
          "name": "",
          "type": "uint256"
        }
      ],
      "name": "CandidateNames",
      "outputs": [
        {
          "internalType": "bytes32",
          "name": "",
          "type": "bytes32"
        }
      ],
      "stateMutability": "view",
      "type": "function"
    },
    {
      "inputs": [
        {
          "internalType": "uint256",
          "name": "",
          "type": "uint256"
        }
      ],
      "name": "candidates",
      "outputs": [
        {
          "internalType": "bytes32",
          "name": "name",
          "type": "bytes32"
        },
        {
          "internalType": "uint256",
          "name": "voteCount",
          "type": "uint256"
        }
      ],
      "stateMutability": "view",
      "type": "function"
    },
    {
      "inputs": [],
      "name": "chairperson",
      "outputs": [
        {
          "internalType": "address",
          "name": "",
          "type": "address"
        }
      ],
      "stateMutability": "view",
      "type": "function"
    },
    {
      "inputs": [
        {
          "internalType": "uint256",
          "name": "candidateIndex",
          "type": "uint256"
        }
      ],
      "name": "changeVote",
      "outputs": [],
      "stateMutability": "nonpayable",
      "type": "function"
    },
    {
      "inputs": [
        {
          "internalType": "uint256",
          "name": "candidateIndex",
          "type": "uint256"
        }
      ],
      "name": "getTotalVoteCountForCandidate",
      "outputs": [
        {
          "internalType": "uint256",
          "name": "voteCount",
          "type": "uint256"
        }
      ],
      "stateMutability": "view",
      "type": "function"
    },
    {
      "inputs": [
        {
          "internalType": "uint256",
          "name": "candidateIndex",
          "type": "uint256"
        }
      ],
      "name": "getVoterListForCandidate",
      "outputs": [
        {
          "internalType": "address[]",
          "name": "votersList",
          "type": "address[]"
        }
      ],
      "stateMutability": "view",
      "type": "function"
    },
    {
      "inputs": [
        {
          "internalType": "address",
          "name": "voter",
          "type": "address"
        }
      ],
      "name": "giveRightToVote",
      "outputs": [],
      "stateMutability": "nonpayable",
      "type": "function"
    },
    {
      "inputs": [
        {
          "internalType": "uint256",
          "name": "candidateIndex",
          "type": "uint256"
        }
      ],
      "name": "vote",
      "outputs": [],
      "stateMutability": "nonpayable",
      "type": "function"
    },
    {
      "inputs": [
        {
          "internalType": "address",
          "name": "",
          "type": "address"
        }
      ],
      "name": "voters",
      "outputs": [
        {
          "internalType": "uint256",
          "name": "weight",
          "type": "uint256"
        },
        {
          "internalType": "bool",
          "name": "voted",
          "type": "bool"
        },
        {
          "internalType": "uint256",
          "name": "vote",
          "type": "uint256"
        },
        {
          "internalType": "uint256",
          "name": "voteExpiry",
          "type": "uint256"
        }
      ],
      "stateMutability": "view",
      "type": "function"
    },
    {
      "inputs": [],
      "name": "winningCandidate",
      "outputs": [
        {
          "internalType": "bytes32",
          "name": "winningCandidate_",
          "type": "bytes32"
        }
      ],
      "stateMutability": "view",
      "type": "function"
    }
  ],
  "bytecode": "0x60806040523480156200001157600080fd5b5060007f446f6e616c64205472756d700000000000000000000000000000000000000000908060018154018082558091505060019003906000526020600020016000909190919091505560007f4a6f6520426964656e0000000000000000000000000000000000000000000000908060018154018082558091505060019003906000526020600020016000909190919091505533600260006101000a81548173ffffffffffffffffffffffffffffffffffffffff021916908373ffffffffffffffffffffffffffffffffffffffff1602179055506001806000600260009054906101000a900473ffffffffffffffffffffffffffffffffffffffff1673ffffffffffffffffffffffffffffffffffffffff1673ffffffffffffffffffffffffffffffffffffffff1681526020019081526020016000206000018190555060005b6000805490508110156200024a5760036040518060600160405280600084815481106200017a57fe5b9060005260206000200154815260200160008152602001600067ffffffffffffffff81118015620001aa57600080fd5b50604051908082528060200260200182016040528015620001da5781602001602082028036833780820191505090505b508152509080600181540180825580915050600190039060005260206000209060030201600090919091909150600082015181600001556020820151816001015560408201518160020190805190602001906200023992919062000251565b505050808060010191505062000151565b50620002ff565b828054828255906000526020600020908101928215620002cd579160200282015b82811115620002cc5782518260006101000a81548173ffffffffffffffffffffffffffffffffffffffff021916908373ffffffffffffffffffffffffffffffffffffffff1602179055509160200191906001019062000272565b5b509050620002dc9190620002e0565b5090565b5b80821115620002fb576000816000905550600101620002e1565b5090565b6111ab806200030f6000396000f3fe608060405234801561001057600080fd5b506004361061009e5760003560e01c80636eb2bf4e116100665780636eb2bf4e146101d25780639e7b8d6114610255578063a3ec138d14610299578063c9f51e5a14610308578063d28178d7146103365761009e565b80630121b93f146100a3578063186d9aaa146100d15780632e4176cf146101135780633477ee2e146101475780634e6623bb14610190575b600080fd5b6100cf600480360360208110156100b957600080fd5b8101908080359060200190929190505050610354565b005b6100fd600480360360208110156100e757600080fd5b81019080803590602001909291905050506105db565b6040518082815260200191505060405180910390f35b61011b6105fc565b604051808273ffffffffffffffffffffffffffffffffffffffff16815260200191505060405180910390f35b6101736004803603602081101561015d57600080fd5b8101908080359060200190929190505050610622565b604051808381526020018281526020019250505060405180910390f35b6101bc600480360360208110156101a657600080fd5b8101908080359060200190929190505050610653565b6040518082815260200191505060405180910390f35b6101fe600480360360208110156101e857600080fd5b81019080803590602001909291905050506106d8565b6040518080602001828103825283818151815260200191508051906020019060200280838360005b83811015610241578082015181840152602081019050610226565b505050509050019250505060405180910390f35b6102976004803603602081101561026b57600080fd5b81019080803573ffffffffffffffffffffffffffffffffffffffff1690602001909291905050506107e1565b005b6102db600480360360208110156102af57600080fd5b81019080803573ffffffffffffffffffffffffffffffffffffffff1690602001909291905050506109e3565b60405180858152602001841515815260200183815260200182815260200194505050505060405180910390f35b6103346004803603602081101561031e57600080fd5b8101908080359060200190929190505050610a20565b005b61033e610e1d565b6040518082815260200191505060405180910390f35b60038054905081106103b1576040517f08c379a00000000000000000000000000000000000000000000000000000000081526004018080602001828103825260228152602001806111546022913960400191505060405180910390fd5b6000600160003373ffffffffffffffffffffffffffffffffffffffff1673ffffffffffffffffffffffffffffffffffffffff168152602001908152602001600020905060008160000154141561046f576040517f08c379a00000000000000000000000000000000000000000000000000000000081526004018080602001828103825260148152602001807f486173206e6f20726967687420746f20766f746500000000000000000000000081525060200191505060405180910390fd5b8060010160009054906101000a900460ff16156104f4576040517f08c379a000000000000000000000000000000000000000000000000000000000815260040180806020018281038252600e8152602001807f416c726561647920766f7465642e00000000000000000000000000000000000081525060200191505060405180910390fd5b60018160010160006101000a81548160ff0219169083151502179055508181600201819055506202a3004201816003018190555080600001546003838154811061053a57fe5b9060005260206000209060030201600101600082825401925050819055506003828154811061056557fe5b9060005260206000209060030201600201339080600181540180825580915050600190039060005260206000200160009091909190916101000a81548173ffffffffffffffffffffffffffffffffffffffff021916908373ffffffffffffffffffffffffffffffffffffffff1602179055505050565b600081815481106105e857fe5b906000526020600020016000915090505481565b600260009054906101000a900473ffffffffffffffffffffffffffffffffffffffff1681565b6003818154811061062f57fe5b90600052602060002090600302016000915090508060000154908060010154905082565b600060038054905082106106b2576040517f08c379a00000000000000000000000000000000000000000000000000000000081526004018080602001828103825260228152602001806111546022913960400191505060405180910390fd5b600382815481106106bf57fe5b9060005260206000209060030201600101549050919050565b60606003805490508210610737576040517f08c379a00000000000000000000000000000000000000000000000000000000081526004018080602001828103825260228152602001806111546022913960400191505060405180910390fd5b6003828154811061074457fe5b90600052602060002090600302016002018054806020026020016040519081016040528092919081815260200182805480156107d557602002820191906000526020600020905b8160009054906101000a900473ffffffffffffffffffffffffffffffffffffffff1673ffffffffffffffffffffffffffffffffffffffff168152602001906001019080831161078b575b50505050509050919050565b600260009054906101000a900473ffffffffffffffffffffffffffffffffffffffff1673ffffffffffffffffffffffffffffffffffffffff163373ffffffffffffffffffffffffffffffffffffffff1614610887576040517f08c379a000000000000000000000000000000000000000000000000000000000815260040180806020018281038252602881526020018061110b6028913960400191505060405180910390fd5b600160008273ffffffffffffffffffffffffffffffffffffffff1673ffffffffffffffffffffffffffffffffffffffff16815260200190815260200160002060010160009054906101000a900460ff161561094a576040517f08c379a00000000000000000000000000000000000000000000000000000000081526004018080602001828103825260188152602001807f54686520766f74657220616c726561647920766f7465642e000000000000000081525060200191505060405180910390fd5b6000600160008373ffffffffffffffffffffffffffffffffffffffff1673ffffffffffffffffffffffffffffffffffffffff168152602001908152602001600020600001541461099957600080fd5b60018060008373ffffffffffffffffffffffffffffffffffffffff1673ffffffffffffffffffffffffffffffffffffffff1681526020019081526020016000206000018190555050565b60016020528060005260406000206000915090508060000154908060010160009054906101000a900460ff16908060020154908060030154905084565b6003805490508110610a7d576040517f08c379a00000000000000000000000000000000000000000000000000000000081526004018080602001828103825260228152602001806111546022913960400191505060405180910390fd5b6000600160003373ffffffffffffffffffffffffffffffffffffffff1673ffffffffffffffffffffffffffffffffffffffff1681526020019081526020016000209050600081600001541415610b3b576040517f08c379a00000000000000000000000000000000000000000000000000000000081526004018080602001828103825260148152602001807f486173206e6f20726967687420746f20766f746500000000000000000000000081525060200191505060405180910390fd5b8060010160009054906101000a900460ff16610bbf576040517f08c379a00000000000000000000000000000000000000000000000000000000081526004018080602001828103825260198152602001807f766f74657220686173206e6f7420766f746564206f6e63652e0000000000000081525060200191505060405180910390fd5b8060030154421115610c39576040517f08c379a000000000000000000000000000000000000000000000000000000000815260040180806020018281038252601c8152602001807f54696d65206578706972656420666f7220766f7465206368616e67650000000081525060200191505060405180910390fd5b81816002018190555060005b600080549050811015610e185782811415610d0e57816000015460038281548110610c6c57fe5b90600052602060002090600302016001016000828254019250508190555060038181548110610c9757fe5b9060005260206000209060030201600201339080600181540180825580915050600190039060005260206000200160009091909190916101000a81548173ffffffffffffffffffffffffffffffffffffffff021916908373ffffffffffffffffffffffffffffffffffffffff160217905550610e0b565b60005b60038281548110610d1e57fe5b906000526020600020906003020160020180549050811015610e09573373ffffffffffffffffffffffffffffffffffffffff1660038381548110610d5e57fe5b90600052602060002090600302016002018281548110610d7a57fe5b9060005260206000200160009054906101000a900473ffffffffffffffffffffffffffffffffffffffff1673ffffffffffffffffffffffffffffffffffffffff161415610dfc57610dcb8282610eaf565b826000015460038381548110610ddd57fe5b9060005260206000209060030201600101600082825403925050819055505b8080600101915050610d11565b505b8080600101915050610c45565b505050565b6000806000905060005b600380549050811015610eaa578160038281548110610e4257fe5b9060005260206000209060030201600101541115610e9d5760038181548110610e6757fe5b906000526020600020906003020160010154915060038181548110610e8857fe5b90600052602060002090600302016000015492505b8080600101915050610e27565b505090565b6003805490508210610f0c576040517f08c379a00000000000000000000000000000000000000000000000000000000081526004018080602001828103825260218152602001806111336021913960400191505060405180910390fd5b60038281548110610f1957fe5b9060005260206000209060030201600201805490508110610fa2576040517f08c379a00000000000000000000000000000000000000000000000000000000081526004018080602001828103825260208152602001807f696e646578206f7574206f6620626f756e6420666f7220766f7465724c69737481525060200191505060405180910390fd5b60008190505b600160038481548110610fb757fe5b906000526020600020906003020160020180549050038110156110a95760038381548110610fe157fe5b9060005260206000209060030201600201600182018154811061100057fe5b9060005260206000200160009054906101000a900473ffffffffffffffffffffffffffffffffffffffff166003848154811061103857fe5b9060005260206000209060030201600201828154811061105457fe5b9060005260206000200160006101000a81548173ffffffffffffffffffffffffffffffffffffffff021916908373ffffffffffffffffffffffffffffffffffffffff1602179055508080600101915050610fa8565b50600382815481106110b757fe5b90600052602060002090600302016002018054806110d157fe5b6001900381819060005260206000200160006101000a81549073ffffffffffffffffffffffffffffffffffffffff02191690559055505056fe4f6e6c79206368616972706572736f6e2063616e206769766520726967687420746f20766f74652e696e646578206f7574206f6620626f756e6420666f722063616e64696461746573757365722063616e2063686f6f7365206569746865722030206f722031206f6e6c79a2646970667358221220ca19df46114cbf61c0f5cfb451502154b0a39c016360c093c3785fa1cd879c4864736f6c63430007030033",
  "linkReferences": {},
  "deployedLinkReferences": {}
}